:020000020000FC
:2000000000400034086008140800683A00000000000000000000000000000000000000003E
:2000080006C00074DEC0001406800074D683C9140080003410A3CE1400C0003418E3CF14A1
:2000100010C00326100000151080010410FFFD360008C5800008D140003FFF06DEFFFF0451
:200018000140FA04DFC0001500082780000B883A2880060E294000440007883A0100F9C469
:2000200018C00C8420FFFE0E28BFFA16DFC00017DEC00104F800283A0007883A18800037EB
:200028001004D63A1080004CF800283ADEFFFF04DFC000150008098010803FCC1005003A4F
:20003000DFC00017DEC00104F800283A0007883A188000371004D67A1080004CF800283ACB
:200038000007883A188000371004D6BA1080004CF800283A0005883A10000035F800283AD0
:200040000005883A10C00037008001C418C003EC1806D43A1809883A10C002362005883AC8
:20004800F800283A01000204003FFC060007883A188000371081FFCCF800283A00C00204E2
:200050000005883A19000716008000C41100060E18C00037213FFF04200490FA1884D83A5C
:2000580010803FCCF800283A0080010410C00037003FF906DEFFFC040100007421238004AF
:20006000DC800015DFC00315DC000215DC4001150025883A0008D4C000000A0600080AC0CE
:2000680010803FCC1000101E90C0004C008000741085000410C000350009883A948000444E
:20007000000805C000080CC010803FCC103FF326010000742123850400083B0000080AC075
:2000780010803FCC103FF026000812C01023883A00081000880B883A0100007421238804E7
:20008000100D883A1021883A044001C400082A00000005060100007421238B048C7FFFC432
:2000880000082A00880009168809883A8C3FF90E000813C0100B883A0100007421238D0458
:200090008C7FFFC400082A00883FF70E00080E0010803FCC100004260100028400082F805B
:2000980000080F40003FD0060100007421238F0400082A00003FF8060007883A200006260C
:2000A0002080004C2008D07A100001261947883A294B883A203FFA1E1805883AF800283AA3
:2000A800DEFFFC04DFC00015D9400115D9800215D9C00315D0A00017200B883AD980010485
:2000B000110001170080007410A26B042080011500089880DFC00017DEC00404F800283A66
:2000B80020C001170200007442229F042809883A180B883A4000683A200B883AD120001704
:2000C000020000744220B8044000683ADEFFFD04DC0001152021883A2809883ADFC002152E
:2000C800DC4000152823883A00083C4080C001170200007442226B04880D883A100F883A7D
:2000D0008009883A180B883A1A000115403EE83A047FFFC48009883A0180007431A3920420
:2000D80001C0004414400B268140011728C00117183EE83A0007883A144006261805883A05
:2000E000DFC00217DC000117DC400017DEC00304F800283A00FFFFC41805883ADFC00217C9
:2000E800DC000117DC400017DEC00304F800283A200B883AD1200017020000744220C3043E
:2000F0004000683A208000072007883A100003262100004420800007103FFD1E20C5C83AE8
:2000F800F800283ADEFFFB04DC000315DC400215DC800115DFC00415D98000052025883AFC
:200100002823883A3C3FFFC401C00A0E88C001179009883A880B883AD80D883A01C00044FF
:20010800183EE83A8007883A843FFFC41000081E00FFF6160005883ADFC00417DC000317D8
:20011000DC400217DC800117DEC00504F800283A00BFFFC4DFC00417DC000317DC400217BE
:20011800DC800117DEC00504F800283ADEFFEC04DF001215DC001115DC401015DC800F15BC
:20012000DD000D15DD800B15DDC00A15DFC01315DCC00E15DD400C1530800003202F883AFF
:200128002829883A1021883AD9C0021534800044D8000315D8000415D8000515D800061543
:200130000039883AD8000715D8000815002D883A0023883A1000061E0000220688002E26BF
:2001380090800003948000441021883A10001D2601C0004489C036263C7FF80E0080008487
:2001400088BFF71E81003FCC2100201C213FE00400800B8420803826817FF40428C03FCC1E
:200148000080024410C03636D8C006172821883A18005916D90006170140028400082780E2
:2001500080C03FCC18C0201C18FFE00410C5883AD880061590800003948000441021883ACD
:20015800103FE31EB005883ADFC01317DF001217DC001117DC401017DC800F17DCC00E1765
:20016000DD000D17DD400C17DD800B17DDC00A17DEC01404F800283A80C03FCC18C0201C92
:2001680018FFE0040080094418802026A0C00117B809883ADC000005A00B883AD80D883AE1
:20017000183EE83A1000E81EB5800044003FC40681003FCC2100201C213FE00400800C04A2
:2001780020801C260080094420801D2600800B840440008420BFC81ED8000615003FB80649
:2001800000801B042080212620FFEA040080080410C01C36180490BA00C0007418E39304F2
:2001880010C5883A110000172000683A00BFFFC4070002843823883AD9C00715D880051583
:20019000D8000315D8000415D8000815D8800615003FA306DC40031504400084003FA0063D
:20019800A0C00117B809883ADC000045A00B883AD9800044880F883A183EE83A1000BA1E68
:2001A000B46D883A0023883A003F950600800044D8800415003F9206D88005171000B41643
:2001A800D90005170140028400082780D8800515D8C0051780803FCC1080201C10BFE0041C
:2001B0001887883AD8C00515003F850600C00044D800071507000404D8C00815D880071720
:2001B800D80009151007003AD88002171540001710800104D88002151800011EA8009E166C
:2001C00004C00044A821883A9823883A000005069809883AE00B883A000827801027883A4C
:2001C8008C4000448009883AE00B883A0008C3801021883A103FF61ED8800517D8C0031748
:2001D0001445C83AD880051518006F26D880091710000D26A0C0011700800B44D8800085B6
:2001D800B809883AA00B883AD980008401C00044183EE83A10007C1ED8C00517B5800044E6
:2001E00018FFFFC4D8C00515D9C00517B809883AA00B883A01800C0400083E401000721E17
:2001E800D8800517B0AD883A983FB626A809883A980B883A0008C38011000C0420C03FCC82
:2001F00000800E4410C0042ED8800817190001C41000011E190009C4A0C00117A00B883ACC
:2001F800D9000105D9800104B809883A01C00044183EE83A10005C1EA809883A980B883A48
:200200000008C4809809883AE00B883A102B883A0008C3801027883AB5800044003FE206A1
:20020800D8800517B809883AA00B883A0180080411FFFFC400083E4010004B1ED8800217A2
:20021000A2000117B809883A10C0001710800104A00B883AD8C00145D8C00517D980014478
:2002180001C00044D88002151DA1883A403EE83A10003D1E802D883A0023883A003F180616
:2002200007000404D8000715003F9406D8000715003F9206D88002171440001710C0010466
:20022800D8C002158809883A00083C401021883AD8800517B809883AA00B883A1427C83A9C
:2002300001800804980F883A00083E401000261EA0C00117880D883AB809883AA00B883A1F
:20023800800F883AB4ED883A183EE83A10001E1EB42D883A0023883A003EF906070002045C
:20024000D8000715003F7506D8C009171821003A8000031ED880051710BFFFC4D8800515AC
:20024800D9C00517B809883AA00B883A0180080400083E4010000C1ED8C00517B0ED883A91
:20025000803F991EA0C0011700800B44D88000C5B809883AA00B883AD98000C401C00044A2
:20025800183EE83A103FAC2600BFFFC4003EFE06D8000515003F4E0600C00044056BC83A2E
:20026000D8C00915003F5E062013883AD12000172807883A300F883A480B883A180D883A3A
:200268000200007442211B044000683ADEFFFA04DC400315DC800215DCC00115DFC00515AF
:20027000DC000415DD0000152A00000B2825883A2027883A4080020C3023883A00FFFFC495
:2002780010001B262940008B28BFFFCC10A0001C10A00004100013163821883A0501000491
:2002800001C0031600001B0604001A0E9140008B297FFFCC2960001C880D883A9809883A09
:2002880029600004800F883AA400010E01C100040008AD8080A1C83A88A3883A00BFF216F3
:200290009200000B408010149080000D00FFFFC41805883ADFC00517DC000417DC40031727
:20029800DC800217DCC00117DD000017DEC00604F800283A0007883A003FF506DEFFFD0446
:2002A000DC4001152023883AD120001700C0007418E26B04DFC00215DC40000528C001158D
:2002A800D80D883A01C00044183EE83A1009883A00BFFFC48807883A208005261805883ABA
:2002B000DFC00217DC400117DEC00304F800283A2007883A003FF906DEFFFE04DC0000154C
:2002B8002021883A2809883A300B883A380D883ADFC00115D02005150008D9001007883AB3
:2002C00000BFFFC4188005261805883ADFC00117DC000017DEC00204F800283AD0A00517C6
:2002C800103FF926808003151805883ADFC00117DC000017DEC00204F800283A0080004445
:2002D000000F883A2900082E28000716294B883A1085883A29000E2E1007003A1800081E18
:2002D800283FFA0E1800061E214002362149C83A388EB03A1004D07A280AD07A103FFA1E65
:2002E0003000011E3809883A2005883AF800283A1007003A183FF426003FF906DEFFFE048C
:2002E800DC000015DFC00115000D883A0021883A2000081628000A160008B3C080000126F6
:2002F0000085C83ADFC00117DC000017DEC00204F800283A0109C83A0021003A283FF60EED
:2002F800014BC83A8021003A003FF306DEFFFE04DC000015DFC00115018000440021883A58
:200300002000081628000A160008B3C0800001260085C83ADFC00117DC000017DEC0020460
:20030800F800283A0109C83A3021883A283FF60E014BC83A003FF406000D883A0200007425
:200310004222CF044000683A01800044020000744222CF044000683ADEFFFF04010000740B
:200318002123B40400C0007418E3B404DFC00015014000742963CE04190006261940052652
:2003200020800017210001041880001518C00104197FFB1E010000742120080400C00074AF
:2003280018E008040140007429600804190006261940052620800017210001041880001514
:2003300018C00104197FFB1E010000742123800400C0007418E38004014000742963B40436
:20033800190006261940052620800017210001041880001518C00104197FFB1E0008DF805D
:200340000200007442237F04DFC00017DEC001044000683ADEFFFF04DFC00015000170FA05
:20034800008000441001703A0008D8C0D1200317D1600217D1A001170200007442205D045F
:20035000DFC00017DEC001044000683ADEFFFE04DC400015DFC001152023883A00083C4004
:20035800880B883A100D883A010000742123CD04000F883A0200007442237104DFC00117EF
:20036000DC400017DEC002044000683AF800283A2007883A00800044000F883A0100007477
:200368002123CD0418800226008000841880031E02000074422371044000683A00BFFFC42F
:20037000F800283A298F883A2100001729C0082E20C001041880003710BFFFEC100003269B
:2003780028800007208000352940004429FFF9363005883AF800283AF800283AF800283AD8
:200380006C6C65484143206F704F204E72656E6500000A214F4649464C5546200021214C0A
:200388003330255B25285D580000297520202020000000203230252000000058435243203B
:20039000525245200000524F0000000A000086CC000086840000868400008684000086841F
:2003980000008684000086840000868400008684000086840000868400008820000086DCFF
:2003A00000008684000086840000868400008684000086DC00008684000086840000868495
:2003A8000000868400008684000088FC000086840000868400008684000088940000868459
:2003B0000000888C00008684000086840000888000008F0400008F0C00008F14000000002C
:2003B800000000000000000000000000000000000000000000000000000000000000000025
:2003C0000000000000000004000000000001000A000000000002000A000000000000000002
:2003C8000000000000008ED000000000000000000000000000011410000000000000000092
:2003D00000000000000000000000000000000000000000000000000000000000000000000D
:2003D800000000000000000000000000000000000000000000000000000000000000000005
:2003E0000000000000000000000000000000000000000000000000000000000000000000FD
:2003E8000000000000000000000000000000000000000000000000000000000000000000F5
:00000001FF
